:020000040800F2
:10000000181800208D2C0008692B00086B2B0008A5
:100010006D2B00086F2B0008712B000800000000FA
:10002000000000000000000000000000B5190008FA
:10003000732B0008000000005D190008752B0008F4
:10004000D52C0008D92C0008DD2C0008E12C000874
:10005000E52C0008E92C0008ED2C0008F12C000824
:10006000F52C0008F92C0008FD2C0008012D0008D3
:10007000052D0008092D00080D2D0008112D000880
:10008000152D0008192D00081D2D0008212D000830
:10009000252D0008292D00082D2D0008312D0008E0
:1000A000352D0008392D00083D2D0008412D000890
:1000B000452D0008492D00084D2D0008512D000840
:1000C000552D0008592D00085D2D0008612D0008F0
:1000D000652D0008692D00086D2D0008712D0008A0
:1000E000752D0008792D00087D2D0008812D000850
:1000F000852D0008892D00088D2D0008912D000800
:10010000000000000000000000000000952D000825
:10011000992D00089D2D0008A12D0008A52D00088F
:10012000A92D0008AD2D0008B12D0008B52D00083F
:10013000B92D0008BD2D00080000000000000000DF
:10014000C12D0008C52D0008C92D000800000000C1
:10015000000000000000000000000000000000009F
:100160000000000000000000CD2D0008D12D000887
:10017000D52D000800000000000000000000000075
:1001800000000000D92D0008F8B50400002C01D1B2
:100190000120CEE32078C00740F1ED80DFF8180A97
:1001A000006810F00C0004280ED0DFF80C0A00687C
:1001B00010F00C00082831D1DFF8FC09006810F4B9
:1001C0008030B0F5803F29D14FF48040B0FA80F004
:1001D00050F02000C0B24009C0B2012803D1DFF8BE
:1001E000BC0900680AE04FF48040B0FA80F04FF498
:1001F0008040B0FA80F0DFF8C40900684FF4804115
:10020000B1FA81F111F01F01C840C00740F1B3807D
:100210006068002840F0AF8001208AE36068B0F594
:10022000803F08D1DFF87409006850F48030DFF8AF
:100230006C19086038E06068002810D1DFF85C09AC
:10024000006830F48030DFF854190860DFF84C099A
:10025000006830F48020DFF84419086024E060680A
:10026000B0F5A02F10D1DFF83409006850F48020D9
:10027000DFF828190860DFF82409006850F480309E
:10028000DFF8181908600FE0DFF81009006830F493
:100290008030DFF808190860DFF80009006830F4E2
:1002A0008020DFF8F8180860DFF804090168090900
:1002B0000901A0680143DFF8F808016060680028C0
:1002C0002CD000F08FFC05004FF48040B0FA80F095
:1002D00050F02000C0B24009C0B2012803D1DFF8BD
:1002E000BC0800680AE04FF48040B0FA80F04FF498
:1002F0008040B0FA80F0DFF8C40800684FF4804115
:10030000B1FA81F111F01F01C840C00733D400F0E9
:1003100069FC401B6528D7D303200AE300F062FC88
:1003200005004FF48040B0FA80F050F02000C0B2D9
:100330004009C0B2012803D1DFF8600800680AE074
:100340004FF48040B0FA80F04FF48040B0FA80F073
:10035000DFF8680800684FF48041B1FA81F111F0CC
:100360001F01C840C00706D500F03CFC401B6528B3
:10037000D7D30320DDE22078800740F1CD80DFF87D
:100380003808006810F00C0F0BD0DFF82C0800685C
:1003900010F00C0008283DD1DFF81C080068C003ED
:1003A00038D45FF08040B0FA80F050F02000C0B246
:1003B0004009C0B2012803D1DFF8E00700680AE075
:1003C0005FF08040B0FA80F05FF08040B0FA80F0DB
:1003D000DFF8E80700685FF08041B1FA81F111F0C1
:1003E0001F01C840C00704D52069012801D00120A1
:1003F0009FE2DFF8A80700685FF0F851B1FA81F1D9
:1004000030F0F800626912FA01F10843DFF88C1746
:10041000086081E02069002847D001205FF000419A
:10042000B1FA81F1DFF8982712EB8102106000F039
:10043000D9FB05005FF08040B0FA80F050F020005A
:10044000C0B24009C0B2012803D1DFF850070068EC
:100450000AE05FF08040B0FA80F05FF08040B0FAD0
:1004600080F0DFF8580700685FF08041B1FA81F151
:1004700011F01F01C840C00706D400F0B3FB401BB9
:100480000328D7D3032054E2DFF8100700685FF099
:10049000F851B1FA81F130F0F800626912FA01F115
:1004A0000843DFF8F816086036E000205FF00041EE
:1004B000B1FA81F1DFF8082712EB8102106000F039
:1004C00091FB05005FF08040B0FA80F050F0200012
:1004D000C0B24009C0B2012803D1DFF8C0060068ED
:1004E0000AE05FF08040B0FA80F05FF08040B0FA40
:1004F00080F0DFF8C80600685FF08041B1FA81F152
:1005000011F01F01C840C00706D500F06BFB401B6F
:100510000328D7D303200CE2207800075AD5A0691E
:1005200000282BD001205FF00041B1FA81F1DFF803
:10053000842612EB8102106000F054FB05005FF08E
:100540008040B0FA80F05FF08040B0FA80F05FF059
:100550008040B0FA80F0DFF8640600685FF0804108
:10056000B1FA81F111F01F01C840C00732D400F088
:1005700039FB401B0328E2D30320DAE100205FF0BF
:100580000041B1FA81F1DFF82C2612EB81021060F4
:1005900000F028FB05005FF08040B0FA80F05FF0CB
:1005A0008040B0FA80F05FF08040B0FA80F0DFF871
:1005B0000C0600685FF08041B1FA81F111F01F0173
:1005C000C840C00706D500F00DFB401B0328E2D34E
:1005D0000320AEE12078400740F1E4800027DFF8F7
:1005E000E4050068C00010D4DFF8D805006850F0BA
:1005F0008050DFF8D0150860DFF8C805006810F0FB
:1006000080500090009801200700DFF8BC050068CA
:10061000C00516D4DFF8B005006850F48070DFF82C
:10062000A815086000F0DEFA0500DFF89C050068F8
:10063000C00506D400F0D6FA401B6528F5D3032088
:1006400077E1E068012808D1DFF88005006850F004
:100650000100DFF87815086037E0E068002810D165
:10066000DFF86805006840084000DFF860150860A2
:10067000DFF85805006830F00400DFF85015086016
:1006800023E0E068052810D1DFF84005006850F04D
:100690000400DFF838150860DFF83005006850F016
:1006A0000100DFF8281508600FE0DFF8200500687A
:1006B00040084000DFF814150860DFF810050068F6
:1006C00030F00400DFF804150860E06800282ED040
:1006D00000F088FA05005FF08040B0FA80F05FF02B
:1006E0008040B0FA80F050F04000C0B24009C0B283
:1006F000022803D1DFF8D404006806E05FF08040F0
:10070000B0FA80F0DFF8B40400685FF08041B1FA1D
:1007100081F111F01F01C840C00737D400F062FA20
:10072000401B41F289318842D5D3032001E100F01A
:1007300059FA05005FF08040B0FA80F05FF0804029
:10074000B0FA80F050F04000C0B24009C0B20228B8
:1007500003D1DFF87804006806E05FF08040B0FA6B
:1007600080F0DFF8580400685FF08041B1FA81F151
:1007700011F01F01C840C00708D500F033FA401B34
:1007800041F289318842D5D30320D2E03800C0B28B
:10079000012807D1DFF82C04006830F08050DFF822
:1007A00024140860E069002800F0C280DFF8080423
:1007B000006810F00C00082800F0A580E06902280D
:1007C0006FD100208021B1FA81F1DFF8F42312EB20
:1007D0008102106000F006FA07004020B0FA80F0B5
:1007E00050F02000C0B24009C0B2012803D1DFF8A8
:1007F000AC03006808E04020B0FA80F04020B0FA76
:1008000080F0DFF8B80300684021B1FA81F111F0FF
:100810001F01C840C00706D500F0E4F9C01B03283B
:10082000DBD3032085E0DFF89003016831F4741115
:10083000606A0143206A0143DFF87C030160012004
:100840008021B1FA81F1DFF8782312EB8102106088
:1008500000F0C8F905004020B0FA80F050F0200008
:10086000C0B24009C0B2012803D1DFF830030068EC
:1008700008E04020B0FA80F04020B0FA80F0DFF8C5
:100880003C0300684021B1FA81F111F01F01C8401A
:10089000C0074DD400F0A6F9401B0328DBD303208A
:1008A00047E000208021B1FA81F1DFF8142312EB38
:1008B0008102106000F096F905004020B0FA80F047
:1008C00050F02000C0B24009C0B2012803D1DFF8C7
:1008D000CC02006808E04020B0FA80F04020B0FA76
:1008E00080F0DFF8D80200684021B1FA81F111F000
:1008F0001F01C840C0071BD500F074F9401B032836
:10090000DBD3032015E0E069012801D1012010E0CC
:10091000DFF8A4020068060016F48030216A8842DD
:1009200004D116F47010616A884201D0012000E001
:100930000020F2BD70B504000D000026002C01D18E
:100940000120F2E0DFF88802006810F00700A842FA
:1009500011D2DFF87C020068C008C0002843DFF82D
:1009600070120860DFF86802006810F00700A84203
:1009700001D00120D9E02078800707D58848016898
:1009800031F0F001A0680143854801602078C0077C
:1009900040F18A806068012823D14FF48040B0FA8A
:1009A00080F050F02000C0B24009C0B2012802D14E
:1009B0007A4800680AE04FF48040B0FA80F04FF4C3
:1009C0008040B0FA80F0DFF8F40100684FF4804115
:1009D000B1FA81F111F01F01C840C00748D40120CD
:1009E000A3E0606802281FD14020B0FA80F050F0E8
:1009F0002000C0B24009C0B2012802D16748006897
:100A000008E04020B0FA80F04020B0FA80F0DFF833
:100A1000AC0100684021B1FA81F111F01F01C8401A
:100A2000C00725D4012080E05FF08040B0FA80F05C
:100A300050F02000C0B24009C0B2012802D157488E
:100A400000680AE05FF08040B0FA80F05FF080401C
:100A5000B0FA80F0DFF8640100685FF08041B1FA1D
:100A600081F111F01F01C840C00701D401205CE0F2
:100A70004B48016889088900606801434848016063
:100A800000F0B0F806004648006810F00C006168FD
:100A9000B0EB810F08D000F0A5F8801B41F289313E
:100AA0008842F0D3032040E04948006810F0070076
:100AB00085420ED246480068C008C0002843444919
:100AC00008604348006810F00700A84201D00120E8
:100AD0002BE02078400707D53148016831F4E06108
:100AE000E06801432E4801602078000708D52C48B3
:100AF000006830F46050216950EAC100284908605C
:100B000000F014F826490968324A11F0F0015FF04C
:100B10007063B3FA83F3D940515CC840224908603E
:100B20002248006800F064F8002070BDF0B4002096
:100B30000021002200230024194D2D6815F00C0619
:100B4000042E02D0082E02D025E0164824E02248C8
:100B500015F470164FF47057B7FA87F7FE40805DB2
:100B60000300134800681D4E10F00F005FF070473F
:100B7000B7FA87F7F840305C0100E80305D509486B
:100B8000B0FBF1F05843020003E0154800FB03F00E
:100B90000200100000E00348F0BC70470010024063
:100BA0000410024000127A00D0000020CC00002087
:100BB0002C100240800442420410024024100240E3
:100BC000000042421C100240007000402010024011
:100BD000002002407C2C00085C2C00086C2C0008D3
:100BE00000093D0001480068704700BFD013002095
:100BF00010B504004FF47A700D490978B0FBF1F09C
:100C00000C490968B1FBF0F000F099F8002801D018
:100C100001200CE0102C09D2002221005FF0FF30EF
:100C200000F078F804480460002000E0012010BDC6
:100C3000D4000020D0000020CC00002010F00703DA
:100C4000DFF808110A684FF6FF010A40DFF80011CB
:100C500051EA03210A43DFF8F4100A607047DFF815
:100C6000EC000068C0F30220704710B4020052B2DA
:100C7000002A05D40A01374B040064B21A5508E073
:100C80000A01354B040064B214F00F04234403F846
:100C9000042C10BC704770B4030013F00704D4F1A7
:100CA0000700052801D3042001E0D4F10700251D29
:100CB000072D01D2002500E0E51E012616FA00F0FE
:100CC000401E0140A940012010FA05F56D1E2A4082
:100CD0001143080070BC704710B50400601EB0F1ED
:100CE000807F01D301200EE0601E1C4908600F21A7
:100CF0005FF0FF30FFF7B9FF0020194908600720B7
:100D000018490860002010BD10B504002000FFF74E
:100D100095FF10BD2DE9F04104000D0016000027DD
:100D2000FFF79DFF8046320029004046FFF7B3FFE2
:100D30000100200040B2FFF798FFBDE8F08110B538
:100D400004002000FFF7C8FF10BD00000CED00E01C
:100D50000000FA0500E400E018ED00E014E000E017
:100D600018E000E010E000E02DE9F04F85B006004B
:100D70000F0090469946DDF838A00F9C109D002C7E
:100D800007D1502080F31188BFF34F8FBFF36F8FCF
:100D9000FEE7002D07D1502080F31188BFF34F8F5D
:100DA000BFF36F8FFEE7542000900098542807D0BF
:100DB000502080F31188BFF34F8FBFF36F8FFEE792
:100DC000002D19D0002C17D0AB46CBF830400220B4
:100DD0008BF8510000200390CDF808B004A80190D2
:100DE000CDF800A04B4642463900300000F047F8ED
:100DF000584600F0A7F801E000200490049805B0E0
:100E0000BDE8F08F2DE9F84F84B006000F00904642
:100E10009946DDF838A0DDF83CB0404680B280004D
:100E200000F0E8FB0500002D0BD0542000F0E2FBA1
:100E30000400002C01D0256304E0280000F00DFC24
:100E400000E00024002C15D0002084F85100002080
:100E500003900294CDF804B0CDF800A04B46424672
:100E600092B23900300000F00AF8200000F06AF871
:100E7000012001E05FF0FF3005B0BDE8F08F2DE903
:100E8000F84F05000E0017009846DDF828900B9CDF
:100E9000DDF830A0DAF8300000EB8700001FC00852
:100EA000C0000090009810F0070F07D0502080F38A
:100EB0001188BFF34F8FBFF36F8FFEE75FF0000B1A
:100EC000BBF1100F0CD216F80B000AEB0B0181F8E6
:100ED000340016F80B00002802D01BF1010BEFE7DD
:100EE00000208AF84300B9F1070F01D3062081469C
:100EF000CAF82C90CAF844900020CAF848001AF1A9
:100F0000040000F0CAFB1AF1180000F0C6FBCAF892
:100F100010A0D9F10700CAF81800CAF824A00020D0
:100F2000CAF84C0000208AF8500042462900009878
:100F300000F0F2FBCAF80000002C01D0C4F800A0B9
:100F4000BDE8F18F10B5040000F082FCDFF83C042E
:100F50000068401CDFF834140860DFF834040068CF
:100F600000280AD1DFF828040460DFF820040068B4
:100F7000012811D100F02CFA0EE0DFF81804006807
:100F8000002809D1E06ADFF808140968C96A8842B4
:100F900002D3DFF8FC030460DFF8FC030068401CA8
:100FA000DFF8F4130860DFF8F40301680122E06A57
:100FB00082401143DFF8E4030160211DDFF8E023E4
:100FC000E36A1420434302EB030000F069FB00F0E6
:100FD0005CFCDFF8C003006800280FD0DFF8B00326
:100FE0000068C06AE16A884208D25FF08050DFF88A
:100FF000F4140860BFF34F8FBFF36F8F10BD38B587
:1010000005000024002D15D0DFF8C003006800287B
:1010100007D0502080F31188BFF34F8FBFF36F8F3D
:10102000FEE700F05DF80021280000F083FA00F0F0
:101030005FF80400002C08D15FF08050DFF8A414A2
:101040000860BFF34F8FBFF36F8F31BD10B586B00F
:10105000002004900020039005AA03A904A800F032
:1010600071FC0498029003980190002000900023E6
:10107000059ADFF89C140FF22D30FFF775FEDFF8AC
:1010800094140860DFF88C040068002801D0012463
:1010900000E00024012C16D1502080F31188BFF30A
:1010A0004F8FBFF36F8F5FF0FF30DFF86C14086075
:1010B0000120DFF8E01208600020DFF8601408600B
:1010C00000F053FB0AE014F1010F07D1502080F328
:1010D0001188BFF34F8FBFF36F8FFEE706B010BDCF
:1010E000DFF8E8020068401CDFF8E0120860704793
:1010F00070B500250026DFF8D4020068002807D16B
:10110000502080F31188BFF34F8FBFF36F8FFEE73E
:1011100000F09EFBDFF8B4020068401EDFF8AC125E
:101120000860DFF8A802006800285DD1DFF85C02E3
:101130000068002858D0DFF8D403006800282BD0BE
:10114000DFF8C803C068C068050015F1180000F09A
:10115000CEFA281D00F0CBFADFF840020168012228
:10116000E86A82401143DFF834020160291DDFF88C
:101170003022EB6A1420434302EB030000F090FAA4
:10118000E86ADFF80C120968C96A8842D3D30120E3
:10119000DFF88C130860CEE7002D01D000F08BF94A
:1011A000DFF880030468002C0ED000F021F800283E
:1011B00003D00120DFF868130860641E002CF4D10E
:1011C0000020DFF860130860DFF85403006800288F
:1011D0000AD0012006005FF08050DFF80813086095
:1011E000BFF34F8FBFF36F8F00F04FFB300070BD28
:1011F0002DE9F0410027DFF8D401006800287CD1F8
:10120000DFF818030468641CDFF810030460002C86
:1012100024D1DFF8140300680068002807D05020AC
:1012200080F31188BFF34F8FBFF36F8FFEE7DFF8B6
:10123000F802D0F80080DFF8F4020068DFF8E81266
:101240000860DFF8E802C0F80080DFF8E402006818
:10125000401CDFF8DC12086000F02DF9DFF8B8025E
:10126000006884423DD3DFF8C002006800680028AF
:1012700005D15FF0FF30DFF8A012086031E0DFF841
:10128000A8020068C068C068050068680600B4422B
:1012900003D2DFF88402066023E0281D00F027FA5D
:1012A000A86A002803D015F1180000F020FA3B4886
:1012B00001680122E86A8240114338480160291D13
:1012C000374AEB6A1420434302EB030000F0E8F9CD
:1012D000E86A2F490968C96A8842C4D30120070017
:1012E000C1E72B4800682E49C26A1420424388583F
:1012F000022809D30120070006E0DFF82802006871
:10130000401CDFF820120860DFF814020068002893
:1013100001D0012007003800BDE8F0812B480068AB
:10132000002804D00120DFF8F81108602CE000202C
:10133000DFF8EC11086019480068B0FA80F1D1F1CB
:101340001F011748142202FB01F28058002807D120
:10135000502080F31188BFF34F8FBFF36F8FFEE7EC
:101360000F48142202FB01F21044426852684260A6
:10137000426810F108039A4202D142685268426002
:101380004068C068024A106070470000E413002003
:10139000D4130020F013002000140020EC130020D0
:1013A000C411002010B5040000F03EF8DFF80C0274
:1013B00000680228F8D35FF08050DFF8041208605C
:1013C000BFF34F8FBFF36F8FEEE700000C140020C8
:1013D00010B50024072C09D2DFF8E001142101FB2D
:1013E00004F1084400F04AF9641CF3E7DFF8D40183
:1013F00000F044F9DFF8D00100F040F9DFF80C010B
:1014000000F03CF9DFF8C40100F038F93E4800F084
:1014100035F9DFF8B001DFF810110860DFF8A80136
:10142000DFF8AC11086010BD10B5DFF8A801006846
:1014300000281DD000F00CFADFF89001C068C068E9
:101440000400201D00F053F9DFF88C010068401EF5
:10145000DFF884110860DFF87C010068401EDFF8C7
:101460007411086000F011FA200000F002F8DCE7C7
:1014700010BD10B5040094F85100002806D1206B6F
:1014800000F0EBF8200000F0E8F813E094F85100C9
:10149000012803D1200000F0E0F80BE094F851009F
:1014A000022807D0502080F31188BFF34F8FBFF37D
:1014B0006F8FFEE710BDDFF870000068006800283D
:1014C00005D15FF0FF30DFF85020106009E0DFF851
:1014D00058000068C068C06801004868DFF838201C
:1014E0001060704704ED00E0DFF8F00000680028AD
:1014F00001D1012007E0DFF8E8000068002801D1F1
:10150000022000E000207047A41300207C1300207C
:10151000CC2C00080814002004140020E81300203C
:10152000F8130020F4130020D8130020DC1300204F
:10153000FC130020F8B505000C001F4807681D4883
:101540000068001D00F0D3F8002809D11948006890
:10155000244909680122C06A824091432148016000
:1015600015F1010F08D1002C06D012480068011DAA
:101570001D4800F095F81BE0E81906000D480068CA
:101580004660BE4207D20B480068011D1048006843
:1015900000F092F80CE007480068011D134800684D
:1015A00000F08AF812480068864201D210480660AE
:1015B000F1BD0000D4130020E8130020C411002066
:1015C00004ED00E054130020681300209013002065
:1015D000DC130020E0130020E4130020F0130020AF
:1015E0000C140020EC130020A4130020D8130020BA
:1015F0000414002038B50500002415F0070F04D0AE
:1016000015F1080015F00705451BFFF769FD18489F
:101610000068002804D11748C008C00014490860B9
:1016200015480068281840F6F831884211D212484F
:10163000006811490968691888420AD20C48006894
:101640000D490968084404000B48006828180A4935
:101650000860FFF74DFD200032BD002807D0502163
:1016600081F31188BFF34F8FBFF36F8FFEE7704791
:10167000BC130020E0000020B813002010F1080186
:1016800041605FF0FF31816010F10801C16010F12D
:10169000080101610021016070470021016170476C
:1016A00042684A6093688B609368596091600861F2
:1016B00003685B1C0360704710B40B6813F1010FE3
:1016C00001D1026907E010F1080254682468A342BE
:1016D00001D35268F9E754684C604C68A1608A6095
:1016E000516008610468641C046010BC704701000C
:1016F00008698A684B689A604A688B685A604268D1
:101700008A4201D18A68426000220A610268521E40
:101710000260006870470000001F5FF08073036084
:10172000001F4B085B000360001F0FF215030360EE
:1017300014380260001F7FF00203036020387047F6
:101740006848006810F1010F07D0502080F311881D
:10175000BFF34F8FBFF36F8FFEE7502080F31188E8
:10176000BFF34F8FBFF36F8FFEE7E0B55E480068B1
:101770005E49884207D1502080F31188BFF34F8F14
:10178000BFF36F8FFEE7584800685949884207D178
:10179000502080F31188BFF34F8FBFF36F8FFEE7A8
:1017A000544801780191FF21017001788DF80010F3
:1017B0009DF8001011F050014F4A117007214F4A57
:1017C00011609DF8001009060AD54C490968491EA8
:1017D0004A4A11609DF8001049008DF80010F0E7AA
:1017E00046490968D1F10701042907D0502181F346
:1017F0001188BFF34F8FBFF36F8FFEE73F49096832
:1018000009023E4A11603D49096811F4E0613B4A12
:101810001160019901703A48006850F4700038492D
:1018200008603748006850F070403549086000F0A3
:101830006DF800202B49086000F0DAF831480068A4
:1018400050F040402F49086000F0C2F800200EBD63
:10185000502080F31188BFF34F8FBFF36F8F214863
:101860000068401C1F4908601E48006801280BD111
:1018700025480068000607D0502080F31188BFF388
:101880004F8FBFF36F8FFEE7704716480068002840
:1018900007D1502080F31188BFF34F8FBFF36F8FB4
:1018A000FEE710480068401E0E4908600D480068B9
:1018B000002802D1002080F31188704780B55020A5
:1018C00080F31188BFF34F8FBFF36F8FFFF790FC4A
:1018D000002803D05FF080500B490860002080F39F
:1018E000118801BDC800002000ED00E071C20F4169
:1018F00070C20F4100E400E011140020CC1300205E
:1019000020ED00E034EF00E004ED00E000200949A4
:101910000860002008490860084800684FF47A71A0
:10192000B0FBF1F0401E064908600720014908603D
:10193000704700BF10E000E018E000E0D000002099
:1019400014E000E0034B0360034B0B608023136043
:10195000704700BFB4120020C40F0020EFF30980CD
:10196000BFF36F8F264B1A681EF0100F08BF20EDD3
:10197000108A20E9F04F106009B44FF0500080F356
:101980001188BFF34F8FBFF36F8FFFF7C7FC4FF086
:10199000000080F3118809BC19680868B0E8F04FAE
:1019A0001EF0100F08BFB0EC108A80F30988BFF357
:1019B0006F8F7047124B19680868B0E8F04F80F3DA
:1019C0000988BFF36F8F4FF0000080F311887047D4
:1019D0000C480068006880F308884FF0000080F32E
:1019E000148862B661B6BFF34F8FBFF36F8F00DF0D
:1019F000DFF81400016841F47001016070470000D5
:101A0000D413002008ED00E088ED00E080B500224E
:101A10004FF40071DFF8440400F02AFB002220217B
:101A2000DFF8380400F024FB00224FF48061DFF877
:101A30002C0400F01DFB00224FF40041DFF81C04D1
:101A400000F016FB00224FF40061DFF8100400F0F4
:101A50000FFB00224FF48041DFF8000400F008FB88
:101A600000224FF48051DFF8F40300F001FB002264
:101A70004FF40051DFF8E40300F0FAFA01BD00B5BD
:101A800095B000F015FB00F039F800F008F900F00F
:101A900081F800F0B3F800F0E7F80EA8DFF8C01303
:101AA0001C2200F019FB00210EA800F069FBDFF8F2
:101AB000B413086007A8DFF8B0131C2200F00CFB79
:101AC000002107A800F05CFBDFF8A013086068465F
:101AD000DFF89C131C2200F0FFFA0021684600F09A
:101AE0004FFBDFF890130860DFF88C034088401C40
:101AF000DFF88413488000F03EFBF5E780B59EB028
:101B000005A8282100F07AFB6846142100F076FB36
:101B10000FA83C2100F072FB032005905FF4A02089
:101B20000690002007900120099010200A900220C2
:101B30000C905FF480300D905FF480100E9005A83B
:101B4000FEF722FB002801D000F0B5F90F2000902D
:101B500002200190002002904FF48060039000204A
:101B6000049001216846FEF7E5FE002801D000F050
:101B7000A2F9DFF808030F90002016905FF48000B0
:101B80001D900FA800F03EFB002801D000F093F953
:101B90001FB000BD80B5BA48BA490860BA48B94913
:101BA00048600020B74988600120B649C86000201D
:101BB000B44908610020B34948610020B1498861F7
:101BC0000020B049C8610020AE490862AD4800F06D
:101BD00081FC002801D000F06EF90021A94800F036
:101BE000DFFC002801D000F066F90021A54800F0D4
:101BF00009FD002801D000F05EF901BD80B5A348C1
:101C0000A34908604FF48270A14948600020A049B0
:101C100088604FF440709E49C86000209C4908616C
:101C200000209B4948614FF4007099498861082061
:101C30009749C8610020964908620020944948628B
:101C400000209349886207209149C862002090498A
:101C5000086308208E4948638D4800F005FD002880
:101C600001D000F028F901BD80B58A488A49086092
:101C700008208949486002208749886002208649F7
:101C800008610020844988610020834908628248F5
:101C900000F054FD002801D000F00DF901BD80B521
:101CA00086B001A8142100F0A9FA7C48006850F41D
:101CB00000107A4908607948006810F4001000901C
:101CC00000987648006850F4002074490860734812
:101CD000006810F40020009000987048006850F4EC
:101CE00080006E4908606D48006810F48000009024
:101CF00000986A48006850F40030684908606748F6
:101D0000006810F40030009000986448006850F4B7
:101D10008020624908606148006810F480200090CB
:101D2000009800224FF608714C4800F0A1F93720C6
:101D300001905B4802900020039001A9474800F001
:101D4000BBF84FF60870019001200290002003902C
:101D50000020049001A9414800F0AEF80120019054
:101D6000002002900020039001A95FF0904000F055
:101D7000A3F807B000BD10B5040041F2883000F0B0
:101D80002FFAFAE710B504004FF47A7000F028FA41
:101D90004448007800280BD002282CD019D30428FE
:101DA00044D03AD306281DD02ED3072809D046E0C8
:101DB000FFF72CFE01224FF40071284800F058F97B
:101DC0003FE0FFF723FE01222021244800F050F9D4
:101DD00037E0FFF71BFE01224FF480611F4800F03F
:101DE00047F92EE0FFF712FE01224FF400411B4895
:101DF00000F03EF925E0FFF709FE01224FF40061F3
:101E0000164800F035F91CE0FFF700FE01224FF400
:101E10008041124800F02CF913E0FFF7F7FD012292
:101E20004FF480510D4800F023F90AE0FFF7EEFD72
:101E300001224FF40051094800F01AF901E0FFF7C0
:101E4000E5FD18480078401C1649087015480078D0
:101E5000082899DB00201349087095E70010004816
:101E6000082C0008C0130020242C0008C4130020F4
:101E7000402C0008C81300200000002020000200B1
:101E800000540040081300200E09002000300140DB
:101E900050120020005C0040D80C002014100240BA
:101EA000000012101014002010B5040040F6B830E5
:101EB00000F096F9FAE77047F8B4030000250868C7
:101EC000E840002800F0D28008680126AE4030408B
:101ED0000200002A00F0C8804868012808D048683D
:101EE000022805D04868112802D04868122818D165
:101EF0009E6803272800C0B240008740BE43CF68D9
:101F00002800C0B2400087403E439E6058680127C9
:101F1000AF40B8434F68C7F30017AF4038430400E1
:101F20005C60DE6803272800C0B240008740BE43E3
:101F30008F682800C0B2400087403E43DE6048689A
:101F4000022802D04868122818D12800C00803EBE4
:101F50008000046A0F2715F00700C0B28000874098
:101F6000BC430F6915F00700C0B2800087403C43B6
:101F700026002800C00803EB8000066218680327CB
:101F80002C00E4B2640017FA04F430EA04040F7978
:101F900017F003072800C0B2400087403C431C6094
:101FA0004868C00060D53848006850F00100364EDF
:101FB00030603548006810F0010000900098334808
:101FC0002E00B60850F826600F2715F00300C0B2A7
:101FD00080008740BE43B3F1904F01D1002414E04C
:101FE0002B48834201D101240FE02A48834201D1CA
:101FF00002240AE02848834201D1032405E027484F
:10200000834201D1042400E0052415F00300C0B28E
:102010008000844026431D482C00A40840F824601A
:102020001F48006890434C68E40300D510431C4CE3
:1020300020601C4C246894434E68B60300D51443BA
:10204000184804601848006890434E68F60200D5AE
:102050001043154C2060154C246894434E68B6021A
:1020600000D51443114804606D1C28E7F1BC70478B
:102070001300DBB2002B03D00B009BB2836102E0A4
:102080000B009BB2836270471810024008000140A9
:102090000004004800080048000C004800100048F8
:1020A0000004014004040140080401400C04014004
:1020B00080B50848006850F0100006490860032009
:1020C000FEF722FE0020FEF793FD00F0E1FB00206A
:1020D00002BD000000200240103A07D330B4B1E83E
:1020E0003810103AA0E83810F9D230BC530724BF9A
:1020F000B1E80810A0E8081044BF51F8043B40F8CC
:10210000043BD20724BF31F8022B20F8022B44BF36
:102110000B7803707047121F17D35B0009D151F879
:10212000043B20F8023B1B0C121F20F8023BF6D2A6
:102130000BE051F8043B00F8013B1B0A20F8023B7E
:102140001B0C121F00F8013BF3D238BF121D521EA8
:1021500024BF11F8013B00F8013BF8D8704700009C
:10216000010000200A0012B2842A03D00A0012B231
:10217000D21C1018704780B5FEF768FF002002BD22
:1021800038B584B004000D006069002813D0A06940
:10219000002810D0B4F90800FFF7E2FFA16902910E
:1021A0006169019100902B00226921686068FEF747
:1021B000DBFD039011E0B4F90800FFF7D1FF03A99C
:1021C000019100902B00226992B221686068FEF7AD
:1021D00019FE012801D0002000E0039805B030BDB1
:1021E00038B505000120B5FBF0F4002C01D020002B
:1021F00000E00120FEF703FF002032BD002200F0C6
:102200000DBC0000F8B50500002600242868C003B6
:1022100040F1A4800027DFF89C020068C00010D4C1
:10222000DFF89002006850F08050DFF888120860F4
:10223000DFF88002006810F08050009000980120C4
:102240000700DFF874020068C00516D4DFF86802E2
:10225000006850F48070DFF860120860FEF7C2FC7E
:102260000600DFF854020068C00506D4FEF7BAFC89
:10227000801B6528F5D303201AE1DFF840020068CF
:1022800010F440700400002C52D0686810F44070C4
:1022900084424DD0DFF82402006830F4407004001E
:1022A00001204FF40041B1FA81F1DFF8142212EB62
:1022B0008102106000204FF40041B1FA81F1DFF893
:1022C000002212EB81021060DFF8F0010460E007E9
:1022D0002ED5FEF787FC06005FF08040B0FA80F054
:1022E0005FF08040B0FA80F050F04000C0B240098A
:1022F000C0B2022803D1DFF8C401006806E05FF035
:102300008040B0FA80F0DFF8BC0100685FF08041E7
:10231000B1FA81F111F01F01C840C00708D4FEF7DF
:1023200061FC801B41F289318842D5D30320BFE094
:10233000DFF88801016831F4407168680143DFF813
:102340007C0101603800C0B2012807D1DFF86401C8
:10235000006830F08050DFF85C1108602878C00712
:1023600009D5DFF86401016889088900A86801437C
:10237000DFF8540101602878800709D5DFF84801AB
:10238000016831F44031E8680143DFF83C01016045
:102390002878400709D5DFF83001016831F4402181
:1023A00028690143DFF8200101602878800609D5FB
:1023B000DFF81401016831F01001E8690143DFF82A
:1023C000080101602868800309D5DFF80001016871
:1023D00031F48001A86B0143DFF8F0000160287838
:1023E000400609D5DFF8E000016831F02001286AD5
:1023F0000143DFF8D40001602878000709D5DFF831
:10240000C800016831F4401168690143DFF8B80081
:1024100001602878C00609D5DFF8AC00016831F406
:102420004001A8690143DFF8A00001602868800529
:1024300009D5DFF89800016831F40001E86A01432A
:10244000DFF8880001602878000609D5DFF88000F1
:10245000016831F4F871686A0143DFF874000160C3
:102460002868C00509D5DFF86800016831F47851A3
:10247000A86A0143DFF8580001602868C00409D544
:10248000DFF84400016831F48071286B0143DFF804
:10249000380001602868800409D5DFF82C00016845
:1024A00031F40071686B0143DFF81C00016000200B
:1024B000F2BD00001C1002400070004020100240DD
:1024C0000004424224100240301002400410024036
:1024D0002C10024010B50400002C01D101205EE058
:1024E00094F84100002805D1002084F84000200025
:1024F00000F0E9F9242084F84100206800684008D1
:10250000400021680860606830F0706021680861F0
:102510002068806830F4004021688860E068012805
:1025200005D1A06850F400402168886004E0A068EC
:1025300050F4044021688860E068022803D14FF419
:102540000060216848602068406840F0007050F4E6
:102550000040216848602068C06830F4004021686D
:10256000C860216960690143A06951EA00212068BF
:10257000C160E169206A0143206801602068006849
:1025800050F001002168086000206064202084F879
:10259000410000202063002084F84200002010BD8C
:1025A000020092F8410020282AD192F84000012828
:1025B00001D1022025E0012082F84000242082F889
:1025C00041001068006840084000136818601068F7
:1025D000006830F480501368186010680068084381
:1025E000136818601068006850F0010013681860E4
:1025F000202082F84100002082F84000002000E006
:102600000220704710B4020092F84100202827D120
:1026100092F84000012801D1022022E0012082F836
:102620004000242082F84100106800684008400003
:10263000136818601068036833F4706353EA012369
:10264000106803601068006850F001001468206092
:10265000202082F84100002082F84000002000E0A5
:10266000022010BC7047000010B50400002C01D1FE
:10267000012062E0606A00280020A06294F85D00FA
:10268000002805D1002084F85C00200000F04EF9FD
:10269000022084F85D002068006830F04000216866
:1026A0000860E06840F20171884201D3002101E036
:1026B0004FF48051E068B0F5706F05D0E068B0F578
:1026C000E06F01D00020A062206B002809D1E068F3
:1026D00040F20172904202D30220206301E0012007
:1026E00020636268A0680243206902436069024374
:1026F000A06910F400700243E0690243206A0243BB
:10270000A06A024320680260A269120C12F004025F
:10271000606A0243606B0243E06802430A43206838
:1027200042602068C06930F400602268D0610020F7
:102730002066012084F85D00002010BD30B585B012
:102740000400002C01D10120A0E094F8A902002887
:1027500005D1002084F8A802200000F01BF9032016
:1027600084F8A902206800F072F900210800C0B2C4
:10277000626890423CD201220B00DBB22820434326
:1027800004EB030080F829200A00D2B2282042433B
:1027900004EB020080F828100A00D2B20B00DBB272
:1027A0002820434304EB0300C28600220B00DBB267
:1027B0002820434304EB030080F82B2000220B0069
:1027C000DBB22820434304EB0300826300220B00AA
:1027D000DBB22820434304EB0300C26300220B005A
:1027E000DBB22820434304EB03000264491CBDE72D
:1027F00000252800C0B26168884236D200212A0034
:10280000D2B22820424304EB020080F8691129006B
:10281000C9B22820414304EB010080F8685100212F
:102820002A00D2B22820424304EB020080F86B1148
:1028300000212A00D2B22820424304EB0200C0F853
:10284000781100212A00D2B22820424304EB020072
:10285000C0F87C1100212A00D2B22820424304EBA8
:102860000200C0F880116D1CC3E7211D83B06846CB
:102870002022FFF731FC0EBC206800F0F2F80020A7
:1028800084F82400012084F8A902002005B030BD9E
:1028900081B05B48006850F0010059490860584811
:1028A000006810F00100009000985648006850F051
:1028B0008050544908605348006810F080500090E0
:1028C000009801B0704710B586B0040001A814212B
:1028D000FFF794FC20684C49884225D14B4800689A
:1028E00050F48020494908604848006810F480206E
:1028F00000900098C02001901220029001200390C7
:10290000032004900420059001A94148FFF7D4FA60
:102910003C48006850F400103A49086039480068A3
:1029200010F400100090009806B010BD10B586B0ED
:10293000040001A81421FFF761FC20683549884292
:1029400026D12F48006850F480502D4908602C484B
:10295000006810F48050009000982C48006850F4F3
:1029600000302A4908602948006810F400300090BF
:102970000098E020019002200290002003900320A4
:1029800004900520059001A95FF09040FFF794FAAC
:1029900006B010BD10B586B0040001A81421FFF7E1
:1029A0002DFC20681C49884227D11848006850F443
:1029B0000030164908601548006810F40030009097
:1029C00000984FF4C0500190022002900020039024
:1029D000032004900E20059001A95FF09040FFF7BE
:1029E0006BFA0848006850F4000006490860054882
:1029F000006810F400000090009806B010BD0000C0
:102A0000181002401C1002400054004014100240F4
:102A10000004004800300140005C004000B500BFE9
:102A2000130096469446103928BFA0E80C50FAD8F7
:102A30005FEA417C28BF0CC048BF40F8042BC9079F
:102A400028BF20F8022B48BF00F8012B00BD010071
:102A50004FF43F42B1F840009043A1F840000020FD
:102A600070470EB401000120A1F840000020A1F839
:102A700040000020A1F844000020A1F850000020F0
:102A800003B0704719E050F8042BD30744BFA9F1F5
:102A900001039A18091F0023042942F8043BF9D2C4
:102AA0005FEA817C134604D54FF0000CA2F800C009
:102AB0009B1CC90744BF0021197050F8041B002952
:102AC000E1D1704730B5016884684218416802EB73
:102AD0005103C9070BD54C4409E012F9011B12F848
:102AE000015B002904F8015B05D5491CF9D19A4224
:102AF000F3D10C3030BD491EF1D5F8E710B50749C8
:102B000079441831064C7C44163404E00A68081DE8
:102B1000114488470146A142F8D110BD2C000000A5
:102B2000480000004EF68851CEF20001086840F4DB
:102B300070000860BFF34F8FBFF36F8F4FF00070CE
:102B4000E1EE100A704700003DFFFFFF3C1300005C
:102B5000D8000020000000006DFFFFFF8002000091
:102B600028000000000000207047FEE7FEE7FEE7B7
:102B7000FEE7704780B500F007F8FEF7B5FC0128C6
:102B800001D0FEF79BFE01BD0348006803490978A8
:102B90004018014908607047D0130020D40000207D
:102BA0000548006850F47000034908605FF0006059
:102BB000024908607047000088ED00E008ED00E081
:102BC00000F00DF8002801D0FFF798FFAFF3008068
:102BD0000020AFF30080FEF752FF00F002F8012062
:102BE000704700F001B800000746384600F002F8D0
:102BF000FBE7000080B5AFF30080024A1100182007
:102C0000ABBEFBE7260002009C2C0008771D0008E5
:102C10000000000000000000800000000000000034
:102C200000000000A82C0008851D0008FEFF000021
:102C30000000000080000000000000000000000014
:102C4000B42C0008A91E00080000000000000000CD
:102C500080000000000000000000000002030405E6
:102C6000060708090A0B0C0D0E0F101001020304D1
:102C700005060708090A0B0C0D0E0F1000000000D6
:102C8000000000000102030406070809014880470C
:102C900001480047A12B0008C12C0008646566614B
:102CA000756C745461736B006D795461736B303261
:102CB000000000006D795461736B30330000000038
:102CC000AFF30080FFF72EFFFFF77AFF49444C4532
:102CD00000000000FFF7FEBFFFF7FEBFFFF7FEBFDB
:102CE000FFF7FEBFFFF7FEBFFFF7FEBFFFF7FEBF18
:102CF000FFF7FEBFFFF7FEBFFFF7FEBFFFF7FEBF08
:102D0000FFF7FEBFFFF7FEBFFFF7FEBFFFF7FEBFF7
:102D1000FFF7FEBFFFF7FEBFFFF7FEBFFFF7FEBFE7
:102D2000FFF7FEBFFFF7FEBFFFF7FEBFFFF7FEBFD7
:102D3000FFF7FEBFFFF7FEBFFFF7FEBFFFF7FEBFC7
:102D4000FFF7FEBFFFF7FEBFFFF7FEBFFFF7FEBFB7
:102D5000FFF7FEBFFFF7FEBFFFF7FEBFFFF7FEBFA7
:102D6000FFF7FEBFFFF7FEBFFFF7FEBFFFF7FEBF97
:102D7000FFF7FEBFFFF7FEBFFFF7FEBFFFF7FEBF87
:102D8000FFF7FEBFFFF7FEBFFFF7FEBFFFF7FEBF77
:102D9000FFF7FEBFFFF7FEBFFFF7FEBFFFF7FEBF67
:102DA000FFF7FEBFFFF7FEBFFFF7FEBFFFF7FEBF57
:102DB000FFF7FEBFFFF7FEBFFFF7FEBFFFF7FEBF47
:102DC000FFF7FEBFFFF7FEBFFFF7FEBFFFF7FEBF37
:102DD000FFF7FEBFFFF7FEBFFFF7FEBF036400E88B
:102DE000038100BB00FCAA0010FC0003127A000162
:0400000508002CC102
:00000001FF
